{
  "contractName": "MediaAuthentication",
  "abi": [
    {
      "anonymous": false,
      "inputs": [
        {
          "indexed": false,
          "internalType": "bytes32",
          "name": "hash",
          "type": "bytes32"
        },
        {
          "indexed": false,
          "internalType": "string",
          "name": "cid",
          "type": "string"
        },
        {
          "indexed": false,
          "internalType": "string",
          "name": "metadata",
          "type": "string"
        },
        {
          "indexed": true,
          "internalType": "address",
          "name": "uploader",
          "type": "address"
        },
        {
          "indexed": false,
          "internalType": "uint256",
          "name": "timestamp",
          "type": "uint256"
        }
      ],
      "name": "MediaUploaded",
      "type": "event"
    },
    {
      "anonymous": false,
      "inputs": [
        {
          "indexed": false,
          "internalType": "bytes32",
          "name": "hash",
          "type": "bytes32"
        },
        {
          "indexed": false,
          "internalType": "bool",
          "name": "isAuthentic",
          "type": "bool"
        },
        {
          "indexed": false,
          "internalType": "string",
          "name": "metadata",
          "type": "string"
        },
        {
          "indexed": true,
          "internalType": "address",
          "name": "verifier",
          "type": "address"
        },
        {
          "indexed": false,
          "internalType": "uint256",
          "name": "timestamp",
          "type": "uint256"
        }
      ],
      "name": "MediaVerified",
      "type": "event"
    },
    {
      "inputs": [
        {
          "internalType": "uint256",
          "name": "",
          "type": "uint256"
        }
      ],
      "name": "mediaHashes",
      "outputs": [
        {
          "internalType": "bytes32",
          "name": "",
          "type": "bytes32"
        }
      ],
      "stateMutability": "view",
      "type": "function",
      "constant": true
    },
    {
      "inputs": [
        {
          "internalType": "bytes32",
          "name": "",
          "type": "bytes32"
        }
      ],
      "name": "mediaRecords",
      "outputs": [
        {
          "internalType": "string",
          "name": "cid",
          "type": "string"
        },
        {
          "internalType": "string",
          "name": "metadata",
          "type": "string"
        },
        {
          "internalType": "address",
          "name": "uploader",
          "type": "address"
        },
        {
          "internalType": "uint256",
          "name": "timestamp",
          "type": "uint256"
        }
      ],
      "stateMutability": "view",
      "type": "function",
      "constant": true
    },
    {
      "inputs": [
        {
          "internalType": "string",
          "name": "_cid",
          "type": "string"
        },
        {
          "internalType": "string",
          "name": "_metadata",
          "type": "string"
        }
      ],
      "name": "uploadMedia",
      "outputs": [],
      "stateMutability": "nonpayable",
      "type": "function"
    },
    {
      "inputs": [
        {
          "internalType": "string",
          "name": "_cid",
          "type": "string"
        }
      ],
      "name": "mediaExists",
      "outputs": [
        {
          "internalType": "bool",
          "name": "exists",
          "type": "bool"
        }
      ],
      "stateMutability": "view",
      "type": "function",
      "constant": true
    },
    {
      "inputs": [
        {
          "internalType": "string",
          "name": "_cid",
          "type": "string"
        }
      ],
      "name": "verifyMedia",
      "outputs": [
        {
          "internalType": "bool",
          "name": "isAuthentic",
          "type": "bool"
        }
      ],
      "stateMutability": "view",
      "type": "function",
      "constant": true
    },
    {
      "inputs": [
        {
          "internalType": "string",
          "name": "_cid",
          "type": "string"
        }
      ],
      "name": "authenticateMedia",
      "outputs": [],
      "stateMutability": "nonpayable",
      "type": "function"
    },
    {
      "inputs": [],
      "name": "getAllMediaDetails",
      "outputs": [
        {
          "internalType": "bytes32[]",
          "name": "hashes",
          "type": "bytes32[]"
        },
        {
          "components": [
            {
              "internalType": "string",
              "name": "cid",
              "type": "string"
            },
            {
              "internalType": "string",
              "name": "metadata",
              "type": "string"
            },
            {
              "internalType": "address",
              "name": "uploader",
              "type": "address"
            },
            {
              "internalType": "uint256",
              "name": "timestamp",
              "type": "uint256"
            }
          ],
          "internalType": "struct MediaAuthentication.Media[]",
          "name": "details",
          "type": "tuple[]"
        }
      ],
      "stateMutability": "view",
      "type": "function",
      "constant": true
    }
  ],
  "bytecode": "0x608060405234801561001057600080fd5b506115e0806100206000396000f3fe608060405234801561001057600080fd5b506004361061007d5760003560e01c806397f584591161005b57806397f58459146100ed578063bb6619341461011d578063bccc18c714610139578063d6cf7c5f146101695761007d565b806389ecdee3146100825780638baa22081461009e5780638dd6e138146100ce575b600080fd5b61009c60048036038101906100979190610b36565b61019c565b005b6100b860048036038101906100b39190610bb5565b6102e9565b6040516100c59190610bfb565b60405180910390f35b6100d661030d565b6040516100e4929190610ecf565b60405180910390f35b61010760048036038101906101029190610b36565b6105d3565b6040516101149190610f21565b60405180910390f35b61013760048036038101906101329190610f3c565b6105e5565b005b610153600480360381019061014e9190610b36565b6107a4565b6040516101609190610f21565b60405180910390f35b610183600480360381019061017e9190610fe0565b61083e565b6040516101939493929190611075565b60405180910390f35b6000816040516020016101af9190611104565b60405160208183030381529060405280519060200120905060006101d2836107a4565b90506000604051806020016040528060008152509050811561028f57600080848152602001908152602001600020600101805461020e9061114a565b80601f016020809104026020016040519081016040528092919081815260200182805461023a9061114a565b80156102875780601f1061025c57610100808354040283529160200191610287565b820191906000526020600020905b81548152906001019060200180831161026a57829003601f168201915b505050505090505b3373ffffffffffffffffffffffffffffffffffffffff167ff306219aa1eb8258ea33af5921b37e9e119a5608815e83de9b3533b2aa268f90848484426040516102db949392919061117b565b60405180910390a250505050565b600181815481106102f957600080fd5b906000526020600020016000915090505481565b6060806000600180549050905060008167ffffffffffffffff81111561033657610335610a0b565b5b60405190808252806020026020018201604052801561036f57816020015b61035c61099e565b8152602001906001900390816103545790505b50905060005b8281101561057357600060018281548110610393576103926111c7565b5b906000526020600020015490506000808281526020019081526020016000206040518060800160405290816000820180546103cd9061114a565b80601f01602080910402602001604051908101604052809291908181526020018280546103f99061114a565b80156104465780601f1061041b57610100808354040283529160200191610446565b820191906000526020600020905b81548152906001019060200180831161042957829003601f168201915b5050505050815260200160018201805461045f9061114a565b80601f016020809104026020016040519081016040528092919081815260200182805461048b9061114a565b80156104d85780601f106104ad576101008083540402835291602001916104d8565b820191906000526020600020905b8154815290600101906020018083116104bb57829003601f168201915b505050505081526020016002820160009054906101000a900473ffffffffffffffffffffffffffffffffffffffff1673ffffffffffffffffffffffffffffffffffffffff1673ffffffffffffffffffffffffffffffffffffffff168152602001600382015481525050838381518110610554576105536111c7565b5b602002602001018190525050808061056b90611225565b915050610375565b50600181818054806020026020016040519081016040528092919081815260200182805480156105c257602002820191906000526020600020905b8154815260200190600101908083116105ae575b505050505091509350935050509091565b60006105de826107a4565b9050919050565b6000826040516020016105f89190611104565b604051602081830303815290604052805190602001209050610619836107a4565b15610659576040517f08c379a0000000000000000000000000000000000000000000000000000000008152600401610650906112b9565b60405180910390fd5b60405180608001604052808481526020018381526020013373ffffffffffffffffffffffffffffffffffffffff1681526020014281525060008083815260200190815260200160002060008201518160000190816106b79190611485565b5060208201518160010190816106cd9190611485565b5060408201518160020160006101000a81548173ffffffffffffffffffffffffffffffffffffffff021916908373ffffffffffffffffffffffffffffffffffffffff1602179055506060820151816003015590505060018190806001815401808255809150506001900390600052602060002001600090919091909150553373ffffffffffffffffffffffffffffffffffffffff167fdbcac255f499aa5cc25f2f072d48b1ef59516b5e771c87ba3a943008e96fa8d5828585426040516107979493929190611557565b60405180910390a2505050565b600080826040516020016107b89190611104565b604051602081830303815290604052805190602001209050600073ffffffffffffffffffffffffffffffffffffffff1660008083815260200190815260200160002060020160009054906101000a900473ffffffffffffffffffffffffffffffffffffffff1673ffffffffffffffffffffffffffffffffffffffff161415915050919050565b60006020528060005260406000206000915090508060000180546108619061114a565b80601f016020809104026020016040519081016040528092919081815260200182805461088d9061114a565b80156108da5780601f106108af576101008083540402835291602001916108da565b820191906000526020600020905b8154815290600101906020018083116108bd57829003601f168201915b5050505050908060010180546108ef9061114a565b80601f016020809104026020016040519081016040528092919081815260200182805461091b9061114a565b80156109685780601f1061093d57610100808354040283529160200191610968565b820191906000526020600020905b81548152906001019060200180831161094b57829003601f168201915b5050505050908060020160009054906101000a900473ffffffffffffffffffffffffffffffffffffffff16908060030154905084565b60405180608001604052806060815260200160608152602001600073ffffffffffffffffffffffffffffffffffffffff168152602001600081525090565b6000604051905090565b600080fd5b600080fd5b600080fd5b600080fd5b6000601f19601f8301169050919050565b7f4e487b7100000000000000000000000000000000000000000000000000000000600052604160045260246000fd5b610a43826109fa565b810181811067ffffffffffffffff82111715610a6257610a61610a0b565b5b80604052505050565b6000610a756109dc565b9050610a818282610a3a565b919050565b600067ffffffffffffffff821115610aa157610aa0610a0b565b5b610aaa826109fa565b9050602081019050919050565b82818337600083830152505050565b6000610ad9610ad484610a86565b610a6b565b905082815260208101848484011115610af557610af46109f5565b5b610b00848285610ab7565b509392505050565b600082601f830112610b1d57610b1c6109f0565b5b8135610b2d848260208601610ac6565b91505092915050565b600060208284031215610b4c57610b4b6109e6565b5b600082013567ffffffffffffffff811115610b6a57610b696109eb565b5b610b7684828501610b08565b91505092915050565b6000819050919050565b610b9281610b7f565b8114610b9d57600080fd5b50565b600081359050610baf81610b89565b92915050565b600060208284031215610bcb57610bca6109e6565b5b6000610bd984828501610ba0565b91505092915050565b6000819050919050565b610bf581610be2565b82525050565b6000602082019050610c106000830184610bec565b92915050565b600081519050919050565b600082825260208201905092915050565b6000819050602082019050919050565b610c4b81610be2565b82525050565b6000610c5d8383610c42565b60208301905092915050565b6000602082019050919050565b6000610c8182610c16565b610c8b8185610c21565b9350610c9683610c32565b8060005b83811015610cc7578151610cae8882610c51565b9750610cb983610c69565b925050600181019050610c9a565b5085935050505092915050565b600081519050919050565b600082825260208201905092915050565b6000819050602082019050919050565b600081519050919050565b600082825260208201905092915050565b60005b83811015610d3a578082015181840152602081019050610d1f565b60008484015250505050565b6000610d5182610d00565b610d5b8185610d0b565b9350610d6b818560208601610d1c565b610d74816109fa565b840191505092915050565b600073ffffffffffffffffffffffffffffffffffffffff82169050919050565b6000610daa82610d7f565b9050919050565b610dba81610d9f565b82525050565b610dc981610b7f565b82525050565b60006080830160008301518482036000860152610dec8282610d46565b91505060208301518482036020860152610e068282610d46565b9150506040830151610e1b6040860182610db1565b506060830151610e2e6060860182610dc0565b508091505092915050565b6000610e458383610dcf565b905092915050565b6000602082019050919050565b6000610e6582610cd4565b610e6f8185610cdf565b935083602082028501610e8185610cf0565b8060005b85811015610ebd5784840389528151610e9e8582610e39565b9450610ea983610e4d565b925060208a01995050600181019050610e85565b50829750879550505050505092915050565b60006040820190508181036000830152610ee98185610c76565b90508181036020830152610efd8184610e5a565b90509392505050565b60008115159050919050565b610f1b81610f06565b82525050565b6000602082019050610f366000830184610f12565b92915050565b60008060408385031215610f5357610f526109e6565b5b600083013567ffffffffffffffff811115610f7157610f706109eb565b5b610f7d85828601610b08565b925050602083013567ffffffffffffffff811115610f9e57610f9d6109eb565b5b610faa85828601610b08565b9150509250929050565b610fbd81610be2565b8114610fc857600080fd5b50565b600081359050610fda81610fb4565b92915050565b600060208284031215610ff657610ff56109e6565b5b600061100484828501610fcb565b91505092915050565b600082825260208201905092915050565b600061102982610d00565b611033818561100d565b9350611043818560208601610d1c565b61104c816109fa565b840191505092915050565b61106081610d9f565b82525050565b61106f81610b7f565b82525050565b6000608082019050818103600083015261108f818761101e565b905081810360208301526110a3818661101e565b90506110b26040830185611057565b6110bf6060830184611066565b95945050505050565b600081905092915050565b60006110de82610d00565b6110e881856110c8565b93506110f8818560208601610d1c565b80840191505092915050565b600061111082846110d3565b915081905092915050565b7f4e487b7100000000000000000000000000000000000000000000000000000000600052602260045260246000fd5b6000600282049050600182168061116257607f821691505b6020821081036111755761117461111b565b5b50919050565b60006080820190506111906000830187610bec565b61119d6020830186610f12565b81810360408301526111af818561101e565b90506111be6060830184611066565b95945050505050565b7f4e487b7100000000000000000000000000000000000000000000000000000000600052603260045260246000fd5b7f4e487b7100000000000000000000000000000000000000000000000000000000600052601160045260246000fd5b600061123082610b7f565b91507fffffffffffffffffffffffffffffffffffffffffffffffffffffffffffffffff8203611262576112616111f6565b5b600182019050919050565b7f4d6564696120616c726561647920657869737473000000000000000000000000600082015250565b60006112a360148361100d565b91506112ae8261126d565b602082019050919050565b600060208201905081810360008301526112d281611296565b9050919050565b60008190508160005260206000209050919050565b60006020601f8301049050919050565b600082821b905092915050565b60006008830261133b7fffffffffffffffffffffffffffffffffffffffffffffffffffffffffffffffff826112fe565b61134586836112fe565b95508019841693508086168417925050509392505050565b6000819050919050565b600061138261137d61137884610b7f565b61135d565b610b7f565b9050919050565b6000819050919050565b61139c83611367565b6113b06113a882611389565b84845461130b565b825550505050565b600090565b6113c56113b8565b6113d0818484611393565b505050565b5b818110156113f4576113e96000826113bd565b6001810190506113d6565b5050565b601f8211156114395761140a816112d9565b611413846112ee565b81016020851015611422578190505b61143661142e856112ee565b8301826113d5565b50505b505050565b600082821c905092915050565b600061145c6000198460080261143e565b1980831691505092915050565b6000611475838361144b565b9150826002028217905092915050565b61148e82610d00565b67ffffffffffffffff8111156114a7576114a6610a0b565b5b6114b1825461114a565b6114bc8282856113f8565b600060209050601f8311600181146114ef57600084156114dd578287015190505b6114e78582611469565b86555061154f565b601f1984166114fd866112d9565b60005b8281101561152557848901518255600182019150602085019450602081019050611500565b86831015611542578489015161153e601f89168261144b565b8355505b6001600288020188555050505b505050505050565b600060808201905061156c6000830187610bec565b818103602083015261157e818661101e565b90508181036040830152611592818561101e565b90506115a16060830184611066565b9594505050505056fea2646970667358221220815473d007a4b30b9c2577924cc6fd54d095aea5ab85d2a2013f7a54f3f29f8264736f6c63430008150033",
  "immutableReferences": {},
  "source": "// SPDX-License-Identifier: MIT\r\npragma solidity ^0.8.0;\r\n\r\ncontract MediaAuthentication {\r\n    struct Media {\r\n        string cid; // Content Identifier (IPFS hash or centralized server identifier)\r\n        string metadata; // Additional metadata (e.g., title, description)\r\n        address uploader; // Address of the uploader\r\n        uint256 timestamp; // Timestamp of upload\r\n    }\r\n\r\n    mapping(bytes32 => Media) public mediaRecords; // Mapping of hash to Media details\r\n    bytes32[] public mediaHashes; // Array to store all media hashes\r\n\r\n    event MediaUploaded(\r\n        bytes32 hash,\r\n        string cid,\r\n        string metadata,\r\n        address indexed uploader,\r\n        uint256 timestamp\r\n    );\r\n\r\n    event MediaVerified(\r\n        bytes32 hash,\r\n        bool isAuthentic,\r\n        string metadata,\r\n        address indexed verifier,\r\n        uint256 timestamp\r\n    );\r\n\r\n    /**\r\n     * @dev Uploads a new video and stores its hash and metadata on the blockchain.\r\n     * @param _cid The CID of the video (IPFS hash or centralized server ID).\r\n     * @param _metadata Metadata associated with the video (e.g., title, description).\r\n     */\r\n    function uploadMedia(string memory _cid, string memory _metadata) external {\r\n        // Generate hash of the CID to store on-chain\r\n        bytes32 mediaHash = keccak256(abi.encodePacked(_cid));\r\n\r\n        // Ensure the media is not already uploaded\r\n        require(!mediaExists(_cid), \"Media already exists\");\r\n\r\n        // Store media details on-chain\r\n        mediaRecords[mediaHash] = Media({\r\n            cid: _cid,\r\n            metadata: _metadata,\r\n            uploader: msg.sender,\r\n            timestamp: block.timestamp\r\n        });\r\n\r\n        // Add the media hash to the array\r\n        mediaHashes.push(mediaHash);\r\n\r\n        emit MediaUploaded(mediaHash, _cid, _metadata, msg.sender, block.timestamp);\r\n    }\r\n\r\n    /**\r\n     * @dev Checks if a media CID already exists in the records.\r\n     * @param _cid The CID of the media to check.\r\n     * @return exists True if the media exists, false otherwise.\r\n     */\r\n    function mediaExists(string memory _cid) public view returns (bool exists) {\r\n        bytes32 mediaHash = keccak256(abi.encodePacked(_cid));\r\n        return mediaRecords[mediaHash].uploader != address(0);\r\n    }\r\n\r\n    /**\r\n     * @dev Verifies the authenticity of a video by comparing its hash with stored records.\r\n     * @param _cid The CID of the video to be verified.\r\n     * @return isAuthentic True if the video is authentic, false otherwise.\r\n     */\r\n    function verifyMedia(string memory _cid) external view returns (bool isAuthentic) {\r\n        return mediaExists(_cid);\r\n    }\r\n\r\n    /**\r\n     * @dev Authenticate a video and emit an event for the verification attempt, including metadata.\r\n     * @param _cid The CID of the video to be verified.\r\n     */\r\n    function authenticateMedia(string memory _cid) external {\r\n        bytes32 mediaHash = keccak256(abi.encodePacked(_cid));\r\n        bool isAuthentic = mediaExists(_cid);\r\n        string memory metadata = \"\";\r\n\r\n        // If the media is authentic, retrieve the metadata\r\n        if (isAuthentic) {\r\n            metadata = mediaRecords[mediaHash].metadata;\r\n        }\r\n\r\n        emit MediaVerified(mediaHash, isAuthentic, metadata, msg.sender, block.timestamp);\r\n    }\r\n\r\n    /**\r\n     * @dev Fetches all media details uploaded to the blockchain.\r\n     * @return hashes Array of all media hashes.\r\n     * @return details Array of media details (CID, metadata, uploader, and timestamp).\r\n     */\r\n    function getAllMediaDetails()\r\n        external\r\n        view\r\n        returns (\r\n            bytes32[] memory hashes,\r\n            Media[] memory details\r\n        )\r\n    {\r\n        uint256 count = mediaHashes.length;\r\n        Media[] memory allMedia = new Media[](count);\r\n\r\n        for (uint256 i = 0; i < count; i++) {\r\n            bytes32 hash = mediaHashes[i];\r\n            allMedia[i] = mediaRecords[hash];\r\n        }\r\n\r\n        return (mediaHashes, allMedia);\r\n    }\r\n}\r\n",
  "sourcePath": "C:\\Users\\Sarthak\\Desktop\\BlockchainProjects\\Blockchain Media Authentication System\\contracts\\MediaAuthentication.sol",
  "compiler": {
    "name": "solc",
    "version": "0.8.21+commit.d9974bed.Emscripten.clang"
  },
  "schemaVersion": "3.4.16",
  "updatedAt": "2025-01-28T12:33:10.474Z",
  "networkType": "ethereum",
  "devdoc": {
    "kind": "dev",
    "methods": {
      "authenticateMedia(string)": {
        "details": "Authenticate a video and emit an event for the verification attempt, including metadata.",
        "params": {
          "_cid": "The CID of the video to be verified."
        }
      },
      "getAllMediaDetails()": {
        "details": "Fetches all media details uploaded to the blockchain.",
        "returns": {
          "details": "Array of media details (CID, metadata, uploader, and timestamp).",
          "hashes": "Array of all media hashes."
        }
      },
      "mediaExists(string)": {
        "details": "Checks if a media CID already exists in the records.",
        "params": {
          "_cid": "The CID of the media to check."
        },
        "returns": {
          "exists": "True if the media exists, false otherwise."
        }
      },
      "uploadMedia(string,string)": {
        "details": "Uploads a new video and stores its hash and metadata on the blockchain.",
        "params": {
          "_cid": "The CID of the video (IPFS hash or centralized server ID).",
          "_metadata": "Metadata associated with the video (e.g., title, description)."
        }
      },
      "verifyMedia(string)": {
        "details": "Verifies the authenticity of a video by comparing its hash with stored records.",
        "params": {
          "_cid": "The CID of the video to be verified."
        },
        "returns": {
          "isAuthentic": "True if the video is authentic, false otherwise."
        }
      }
    },
    "version": 1
  },
  "userdoc": {
    "kind": "user",
    "methods": {},
    "version": 1
  }
}