{
  "contractName": "MediaAuthentication",
  "abi": [
    {
      "anonymous": false,
      "inputs": [
        {
          "indexed": false,
          "internalType": "bytes32",
          "name": "hash",
          "type": "bytes32"
        },
        {
          "indexed": false,
          "internalType": "string",
          "name": "cid",
          "type": "string"
        },
        {
          "indexed": false,
          "internalType": "string",
          "name": "metadata",
          "type": "string"
        },
        {
          "indexed": true,
          "internalType": "address",
          "name": "uploader",
          "type": "address"
        },
        {
          "indexed": false,
          "internalType": "uint256",
          "name": "timestamp",
          "type": "uint256"
        }
      ],
      "name": "MediaUploaded",
      "type": "event"
    },
    {
      "anonymous": false,
      "inputs": [
        {
          "indexed": false,
          "internalType": "bytes32",
          "name": "hash",
          "type": "bytes32"
        },
        {
          "indexed": false,
          "internalType": "bool",
          "name": "isAuthentic",
          "type": "bool"
        },
        {
          "indexed": true,
          "internalType": "address",
          "name": "verifier",
          "type": "address"
        },
        {
          "indexed": false,
          "internalType": "uint256",
          "name": "timestamp",
          "type": "uint256"
        }
      ],
      "name": "MediaVerified",
      "type": "event"
    },
    {
      "inputs": [
        {
          "internalType": "uint256",
          "name": "",
          "type": "uint256"
        }
      ],
      "name": "mediaHashes",
      "outputs": [
        {
          "internalType": "bytes32",
          "name": "",
          "type": "bytes32"
        }
      ],
      "stateMutability": "view",
      "type": "function",
      "constant": true
    },
    {
      "inputs": [
        {
          "internalType": "bytes32",
          "name": "",
          "type": "bytes32"
        }
      ],
      "name": "mediaRecords",
      "outputs": [
        {
          "internalType": "string",
          "name": "cid",
          "type": "string"
        },
        {
          "internalType": "string",
          "name": "metadata",
          "type": "string"
        },
        {
          "internalType": "address",
          "name": "uploader",
          "type": "address"
        },
        {
          "internalType": "uint256",
          "name": "timestamp",
          "type": "uint256"
        }
      ],
      "stateMutability": "view",
      "type": "function",
      "constant": true
    },
    {
      "inputs": [
        {
          "internalType": "string",
          "name": "_cid",
          "type": "string"
        },
        {
          "internalType": "string",
          "name": "_metadata",
          "type": "string"
        }
      ],
      "name": "uploadMedia",
      "outputs": [],
      "stateMutability": "nonpayable",
      "type": "function"
    },
    {
      "inputs": [
        {
          "internalType": "string",
          "name": "_cid",
          "type": "string"
        }
      ],
      "name": "verifyMedia",
      "outputs": [
        {
          "internalType": "bool",
          "name": "isAuthentic",
          "type": "bool"
        }
      ],
      "stateMutability": "view",
      "type": "function",
      "constant": true
    },
    {
      "inputs": [
        {
          "internalType": "string",
          "name": "_cid",
          "type": "string"
        }
      ],
      "name": "authenticateMedia",
      "outputs": [],
      "stateMutability": "nonpayable",
      "type": "function"
    },
    {
      "inputs": [],
      "name": "getAllMediaDetails",
      "outputs": [
        {
          "internalType": "bytes32[]",
          "name": "hashes",
          "type": "bytes32[]"
        },
        {
          "components": [
            {
              "internalType": "string",
              "name": "cid",
              "type": "string"
            },
            {
              "internalType": "string",
              "name": "metadata",
              "type": "string"
            },
            {
              "internalType": "address",
              "name": "uploader",
              "type": "address"
            },
            {
              "internalType": "uint256",
              "name": "timestamp",
              "type": "uint256"
            }
          ],
          "internalType": "struct MediaAuthentication.Media[]",
          "name": "details",
          "type": "tuple[]"
        }
      ],
      "stateMutability": "view",
      "type": "function",
      "constant": true
    }
  ],
  "bytecode": "0x608060405234801561001057600080fd5b50611567806100206000396000f3fe608060405234801561001057600080fd5b50600436106100625760003560e01c806389ecdee3146100675780638baa2208146100835780638dd6e138146100b357806397f58459146100d2578063bb66193414610102578063d6cf7c5f1461011e575b600080fd5b610081600480360381019061007c9190610ad2565b610151565b005b61009d60048036038101906100989190610b51565b61023c565b6040516100aa9190610b97565b60405180910390f35b6100bb610260565b6040516100c9929190610e6b565b60405180910390f35b6100ec60048036038101906100e79190610ad2565b610526565b6040516100f99190610ebd565b60405180910390f35b61011c60048036038101906101179190610ed8565b6105c0565b005b61013860048036038101906101339190610f7c565b6107da565b6040516101489493929190611011565b60405180910390f35b60008160405160200161016491906110a0565b60405160208183030381529060405280519060200120905060008073ffffffffffffffffffffffffffffffffffffffff1660008084815260200190815260200160002060020160009054906101000a900473ffffffffffffffffffffffffffffffffffffffff1673ffffffffffffffffffffffffffffffffffffffff16141590503373ffffffffffffffffffffffffffffffffffffffff167fd7cc2a95ab3ae400e7530ac28a622da4989ddb38f404cac572ad8aafb9a18c9283834260405161022f939291906110b7565b60405180910390a2505050565b6001818154811061024c57600080fd5b906000526020600020016000915090505481565b6060806000600180549050905060008167ffffffffffffffff811115610289576102886109a7565b5b6040519080825280602002602001820160405280156102c257816020015b6102af61093a565b8152602001906001900390816102a75790505b50905060005b828110156104c6576000600182815481106102e6576102e56110ee565b5b906000526020600020015490506000808281526020019081526020016000206040518060800160405290816000820180546103209061114c565b80601f016020809104026020016040519081016040528092919081815260200182805461034c9061114c565b80156103995780601f1061036e57610100808354040283529160200191610399565b820191906000526020600020905b81548152906001019060200180831161037c57829003601f168201915b505050505081526020016001820180546103b29061114c565b80601f01602080910402602001604051908101604052809291908181526020018280546103de9061114c565b801561042b5780601f106104005761010080835404028352916020019161042b565b820191906000526020600020905b81548152906001019060200180831161040e57829003601f168201915b505050505081526020016002820160009054906101000a900473ffffffffffffffffffffffffffffffffffffffff1673ffffffffffffffffffffffffffffffffffffffff1673ffffffffffffffffffffffffffffffffffffffff1681526020016003820154815250508383815181106104a7576104a66110ee565b5b60200260200101819052505080806104be906111ac565b9150506102c8565b506001818180548060200260200160405190810160405280929190818152602001828054801561051557602002820191906000526020600020905b815481526020019060010190808311610501575b505050505091509350935050509091565b6000808260405160200161053a91906110a0565b604051602081830303815290604052805190602001209050600073ffffffffffffffffffffffffffffffffffffffff1660008083815260200190815260200160002060020160009054906101000a900473ffffffffffffffffffffffffffffffffffffffff1673ffffffffffffffffffffffffffffffffffffffff161415915050919050565b6000826040516020016105d391906110a0565b604051602081830303815290604052805190602001209050600073ffffffffffffffffffffffffffffffffffffffff1660008083815260200190815260200160002060020160009054906101000a900473ffffffffffffffffffffffffffffffffffffffff1673ffffffffffffffffffffffffffffffffffffffff161461068f576040517f08c379a000000000000000000000000000000000000000000000000000000000815260040161068690611240565b60405180910390fd5b60405180608001604052808481526020018381526020013373ffffffffffffffffffffffffffffffffffffffff1681526020014281525060008083815260200190815260200160002060008201518160000190816106ed919061140c565b506020820151816001019081610703919061140c565b5060408201518160020160006101000a81548173ffffffffffffffffffffffffffffffffffffffff021916908373ffffffffffffffffffffffffffffffffffffffff1602179055506060820151816003015590505060018190806001815401808255809150506001900390600052602060002001600090919091909150553373ffffffffffffffffffffffffffffffffffffffff167fdbcac255f499aa5cc25f2f072d48b1ef59516b5e771c87ba3a943008e96fa8d5828585426040516107cd94939291906114de565b60405180910390a2505050565b60006020528060005260406000206000915090508060000180546107fd9061114c565b80601f01602080910402602001604051908101604052809291908181526020018280546108299061114c565b80156108765780601f1061084b57610100808354040283529160200191610876565b820191906000526020600020905b81548152906001019060200180831161085957829003601f168201915b50505050509080600101805461088b9061114c565b80601f01602080910402602001604051908101604052809291908181526020018280546108b79061114c565b80156109045780601f106108d957610100808354040283529160200191610904565b820191906000526020600020905b8154815290600101906020018083116108e757829003601f168201915b5050505050908060020160009054906101000a900473ffffffffffffffffffffffffffffffffffffffff16908060030154905084565b60405180608001604052806060815260200160608152602001600073ffffffffffffffffffffffffffffffffffffffff168152602001600081525090565b6000604051905090565b600080fd5b600080fd5b600080fd5b600080fd5b6000601f19601f8301169050919050565b7f4e487b7100000000000000000000000000000000000000000000000000000000600052604160045260246000fd5b6109df82610996565b810181811067ffffffffffffffff821117156109fe576109fd6109a7565b5b80604052505050565b6000610a11610978565b9050610a1d82826109d6565b919050565b600067ffffffffffffffff821115610a3d57610a3c6109a7565b5b610a4682610996565b9050602081019050919050565b82818337600083830152505050565b6000610a75610a7084610a22565b610a07565b905082815260208101848484011115610a9157610a90610991565b5b610a9c848285610a53565b509392505050565b600082601f830112610ab957610ab861098c565b5b8135610ac9848260208601610a62565b91505092915050565b600060208284031215610ae857610ae7610982565b5b600082013567ffffffffffffffff811115610b0657610b05610987565b5b610b1284828501610aa4565b91505092915050565b6000819050919050565b610b2e81610b1b565b8114610b3957600080fd5b50565b600081359050610b4b81610b25565b92915050565b600060208284031215610b6757610b66610982565b5b6000610b7584828501610b3c565b91505092915050565b6000819050919050565b610b9181610b7e565b82525050565b6000602082019050610bac6000830184610b88565b92915050565b600081519050919050565b600082825260208201905092915050565b6000819050602082019050919050565b610be781610b7e565b82525050565b6000610bf98383610bde565b60208301905092915050565b6000602082019050919050565b6000610c1d82610bb2565b610c278185610bbd565b9350610c3283610bce565b8060005b83811015610c63578151610c4a8882610bed565b9750610c5583610c05565b925050600181019050610c36565b5085935050505092915050565b600081519050919050565b600082825260208201905092915050565b6000819050602082019050919050565b600081519050919050565b600082825260208201905092915050565b60005b83811015610cd6578082015181840152602081019050610cbb565b60008484015250505050565b6000610ced82610c9c565b610cf78185610ca7565b9350610d07818560208601610cb8565b610d1081610996565b840191505092915050565b600073ffffffffffffffffffffffffffffffffffffffff82169050919050565b6000610d4682610d1b565b9050919050565b610d5681610d3b565b82525050565b610d6581610b1b565b82525050565b60006080830160008301518482036000860152610d888282610ce2565b91505060208301518482036020860152610da28282610ce2565b9150506040830151610db76040860182610d4d565b506060830151610dca6060860182610d5c565b508091505092915050565b6000610de18383610d6b565b905092915050565b6000602082019050919050565b6000610e0182610c70565b610e0b8185610c7b565b935083602082028501610e1d85610c8c565b8060005b85811015610e595784840389528151610e3a8582610dd5565b9450610e4583610de9565b925060208a01995050600181019050610e21565b50829750879550505050505092915050565b60006040820190508181036000830152610e858185610c12565b90508181036020830152610e998184610df6565b90509392505050565b60008115159050919050565b610eb781610ea2565b82525050565b6000602082019050610ed26000830184610eae565b92915050565b60008060408385031215610eef57610eee610982565b5b600083013567ffffffffffffffff811115610f0d57610f0c610987565b5b610f1985828601610aa4565b925050602083013567ffffffffffffffff811115610f3a57610f39610987565b5b610f4685828601610aa4565b9150509250929050565b610f5981610b7e565b8114610f6457600080fd5b50565b600081359050610f7681610f50565b92915050565b600060208284031215610f9257610f91610982565b5b6000610fa084828501610f67565b91505092915050565b600082825260208201905092915050565b6000610fc582610c9c565b610fcf8185610fa9565b9350610fdf818560208601610cb8565b610fe881610996565b840191505092915050565b610ffc81610d3b565b82525050565b61100b81610b1b565b82525050565b6000608082019050818103600083015261102b8187610fba565b9050818103602083015261103f8186610fba565b905061104e6040830185610ff3565b61105b6060830184611002565b95945050505050565b600081905092915050565b600061107a82610c9c565b6110848185611064565b9350611094818560208601610cb8565b80840191505092915050565b60006110ac828461106f565b915081905092915050565b60006060820190506110cc6000830186610b88565b6110d96020830185610eae565b6110e66040830184611002565b949350505050565b7f4e487b7100000000000000000000000000000000000000000000000000000000600052603260045260246000fd5b7f4e487b7100000000000000000000000000000000000000000000000000000000600052602260045260246000fd5b6000600282049050600182168061116457607f821691505b6020821081036111775761117661111d565b5b50919050565b7f4e487b7100000000000000000000000000000000000000000000000000000000600052601160045260246000fd5b60006111b782610b1b565b91507fffffffffffffffffffffffffffffffffffffffffffffffffffffffffffffffff82036111e9576111e861117d565b5b600182019050919050565b7f4d6564696120616c726561647920657869737473000000000000000000000000600082015250565b600061122a601483610fa9565b9150611235826111f4565b602082019050919050565b600060208201905081810360008301526112598161121d565b9050919050565b60008190508160005260206000209050919050565b60006020601f8301049050919050565b600082821b905092915050565b6000600883026112c27fffffffffffffffffffffffffffffffffffffffffffffffffffffffffffffffff82611285565b6112cc8683611285565b95508019841693508086168417925050509392505050565b6000819050919050565b60006113096113046112ff84610b1b565b6112e4565b610b1b565b9050919050565b6000819050919050565b611323836112ee565b61133761132f82611310565b848454611292565b825550505050565b600090565b61134c61133f565b61135781848461131a565b505050565b5b8181101561137b57611370600082611344565b60018101905061135d565b5050565b601f8211156113c05761139181611260565b61139a84611275565b810160208510156113a9578190505b6113bd6113b585611275565b83018261135c565b50505b505050565b600082821c905092915050565b60006113e3600019846008026113c5565b1980831691505092915050565b60006113fc83836113d2565b9150826002028217905092915050565b61141582610c9c565b67ffffffffffffffff81111561142e5761142d6109a7565b5b611438825461114c565b61144382828561137f565b600060209050601f8311600181146114765760008415611464578287015190505b61146e85826113f0565b8655506114d6565b601f19841661148486611260565b60005b828110156114ac57848901518255600182019150602085019450602081019050611487565b868310156114c957848901516114c5601f8916826113d2565b8355505b6001600288020188555050505b505050505050565b60006080820190506114f36000830187610b88565b81810360208301526115058186610fba565b905081810360408301526115198185610fba565b90506115286060830184611002565b9594505050505056fea2646970667358221220eb5567317fa0612198a72f51259812b7e7b569a887b28632bc4c4acd8023ef0664736f6c63430008150033",
  "immutableReferences": {},
  "source": "// SPDX-License-Identifier: MIT\r\npragma solidity ^0.8.0;\r\n\r\ncontract MediaAuthentication {\r\n    struct Media {\r\n        string cid; // Content Identifier (IPFS hash or centralized server identifier)\r\n        string metadata; // Additional metadata (e.g., title, description)\r\n        address uploader; // Address of the uploader\r\n        uint256 timestamp; // Timestamp of upload\r\n    }\r\n\r\n    mapping(bytes32 => Media) public mediaRecords; // Mapping of hash to Media details\r\n    bytes32[] public mediaHashes; // Array to store all media hashes\r\n\r\n    event MediaUploaded(\r\n        bytes32 hash,\r\n        string cid,\r\n        string metadata,\r\n        address indexed uploader,\r\n        uint256 timestamp\r\n    );\r\n\r\n    event MediaVerified(\r\n        bytes32 hash,\r\n        bool isAuthentic,\r\n        address indexed verifier,\r\n        uint256 timestamp\r\n    );\r\n\r\n    /**\r\n     * @dev Uploads a new video and stores its hash and metadata on the blockchain.\r\n     * @param _cid The CID of the video (IPFS hash or centralized server ID).\r\n     * @param _metadata Metadata associated with the video (e.g., title, description).\r\n     */\r\n    function uploadMedia(string memory _cid, string memory _metadata) external {\r\n        // Generate hash of the CID to store on-chain\r\n        bytes32 mediaHash = keccak256(abi.encodePacked(_cid));\r\n\r\n        // Ensure the media is not already uploaded\r\n        require(mediaRecords[mediaHash].uploader == address(0), \"Media already exists\");\r\n\r\n        // Store media details on-chain\r\n        mediaRecords[mediaHash] = Media({\r\n            cid: _cid,\r\n            metadata: _metadata,\r\n            uploader: msg.sender,\r\n            timestamp: block.timestamp\r\n        });\r\n\r\n        // Add the media hash to the array\r\n        mediaHashes.push(mediaHash);\r\n\r\n        emit MediaUploaded(mediaHash, _cid, _metadata, msg.sender, block.timestamp);\r\n    }\r\n\r\n    /**\r\n     * @dev Verifies the authenticity of a video by comparing its hash with stored records.\r\n     * @param _cid The CID of the video to be verified.\r\n     * @return isAuthentic True if the video is authentic, false otherwise.\r\n     */\r\n    function verifyMedia(string memory _cid) external view returns (bool isAuthentic) {\r\n        // Generate hash of the CID\r\n        bytes32 mediaHash = keccak256(abi.encodePacked(_cid));\r\n\r\n        // Check if the hash exists in the mapping\r\n        return mediaRecords[mediaHash].uploader != address(0);\r\n    }\r\n\r\n    /**\r\n     * @dev Authenticate a video and emit an event for the verification attempt.\r\n     * @param _cid The CID of the video to be verified.\r\n     */\r\n    function authenticateMedia(string memory _cid) external {\r\n        bytes32 mediaHash = keccak256(abi.encodePacked(_cid));\r\n        bool isAuthentic = mediaRecords[mediaHash].uploader != address(0);\r\n\r\n        emit MediaVerified(mediaHash, isAuthentic, msg.sender, block.timestamp);\r\n    }\r\n\r\n    /**\r\n     * @dev Fetches all media details uploaded to the blockchain.\r\n     * @return hashes Array of all media hashes.\r\n     * @return details Array of media details (CID, metadata, uploader, and timestamp).\r\n     */\r\n    function getAllMediaDetails()\r\n        external\r\n        view\r\n        returns (\r\n            bytes32[] memory hashes,\r\n            Media[] memory details\r\n        )\r\n    {\r\n        uint256 count = mediaHashes.length;\r\n        Media[] memory allMedia = new Media[](count);\r\n\r\n        for (uint256 i = 0; i < count; i++) {\r\n            bytes32 hash = mediaHashes[i];\r\n            allMedia[i] = mediaRecords[hash];\r\n        }\r\n\r\n        return (mediaHashes, allMedia);\r\n    }\r\n}\r\n",
  "sourcePath": "C:\\Users\\Sarthak\\Desktop\\BlockchainProjects\\Blockchain Media Authentication System\\contracts\\MediaAuthentication.sol",
  "compiler": {
    "name": "solc",
    "version": "0.8.21+commit.d9974bed.Emscripten.clang"
  },
  "schemaVersion": "3.4.16",
  "updatedAt": "2025-01-27T17:30:37.046Z",
  "networkType": "ethereum",
  "devdoc": {
    "kind": "dev",
    "methods": {
      "authenticateMedia(string)": {
        "details": "Authenticate a video and emit an event for the verification attempt.",
        "params": {
          "_cid": "The CID of the video to be verified."
        }
      },
      "getAllMediaDetails()": {
        "details": "Fetches all media details uploaded to the blockchain.",
        "returns": {
          "details": "Array of media details (CID, metadata, uploader, and timestamp).",
          "hashes": "Array of all media hashes."
        }
      },
      "uploadMedia(string,string)": {
        "details": "Uploads a new video and stores its hash and metadata on the blockchain.",
        "params": {
          "_cid": "The CID of the video (IPFS hash or centralized server ID).",
          "_metadata": "Metadata associated with the video (e.g., title, description)."
        }
      },
      "verifyMedia(string)": {
        "details": "Verifies the authenticity of a video by comparing its hash with stored records.",
        "params": {
          "_cid": "The CID of the video to be verified."
        },
        "returns": {
          "isAuthentic": "True if the video is authentic, false otherwise."
        }
      }
    },
    "version": 1
  },
  "userdoc": {
    "kind": "user",
    "methods": {},
    "version": 1
  }
}