{
  "contractName": "MediaAuthentication",
  "abi": [
    {
      "anonymous": false,
      "inputs": [
        {
          "indexed": false,
          "internalType": "bytes32",
          "name": "hash",
          "type": "bytes32"
        },
        {
          "indexed": false,
          "internalType": "string",
          "name": "cid",
          "type": "string"
        },
        {
          "indexed": false,
          "internalType": "string",
          "name": "metadata",
          "type": "string"
        },
        {
          "indexed": true,
          "internalType": "address",
          "name": "uploader",
          "type": "address"
        },
        {
          "indexed": false,
          "internalType": "uint256",
          "name": "timestamp",
          "type": "uint256"
        }
      ],
      "name": "MediaUploaded",
      "type": "event"
    },
    {
      "anonymous": false,
      "inputs": [
        {
          "indexed": false,
          "internalType": "bytes32",
          "name": "hash",
          "type": "bytes32"
        },
        {
          "indexed": false,
          "internalType": "bool",
          "name": "isAuthentic",
          "type": "bool"
        },
        {
          "indexed": true,
          "internalType": "address",
          "name": "verifier",
          "type": "address"
        },
        {
          "indexed": false,
          "internalType": "uint256",
          "name": "timestamp",
          "type": "uint256"
        }
      ],
      "name": "MediaVerified",
      "type": "event"
    },
    {
      "inputs": [
        {
          "internalType": "bytes32",
          "name": "",
          "type": "bytes32"
        }
      ],
      "name": "mediaRecords",
      "outputs": [
        {
          "internalType": "string",
          "name": "cid",
          "type": "string"
        },
        {
          "internalType": "string",
          "name": "metadata",
          "type": "string"
        },
        {
          "internalType": "address",
          "name": "uploader",
          "type": "address"
        },
        {
          "internalType": "uint256",
          "name": "timestamp",
          "type": "uint256"
        }
      ],
      "stateMutability": "view",
      "type": "function",
      "constant": true
    },
    {
      "inputs": [
        {
          "internalType": "string",
          "name": "_cid",
          "type": "string"
        },
        {
          "internalType": "string",
          "name": "_metadata",
          "type": "string"
        }
      ],
      "name": "uploadMedia",
      "outputs": [],
      "stateMutability": "nonpayable",
      "type": "function"
    },
    {
      "inputs": [
        {
          "internalType": "string",
          "name": "_cid",
          "type": "string"
        }
      ],
      "name": "verifyMedia",
      "outputs": [
        {
          "internalType": "bool",
          "name": "isAuthentic",
          "type": "bool"
        }
      ],
      "stateMutability": "view",
      "type": "function",
      "constant": true
    },
    {
      "inputs": [
        {
          "internalType": "string",
          "name": "_cid",
          "type": "string"
        }
      ],
      "name": "authenticateMedia",
      "outputs": [],
      "stateMutability": "nonpayable",
      "type": "function"
    }
  ],
  "bytecode": "0x608060405234801561001057600080fd5b50610e0e806100206000396000f3fe608060405234801561001057600080fd5b506004361061004c5760003560e01c806389ecdee31461005157806397f584591461006d578063bb6619341461009d578063d6cf7c5f146100b9575b600080fd5b61006b6004803603810190610066919061071c565b6100ec565b005b6100876004803603810190610082919061071c565b6101d7565b6040516100949190610780565b60405180910390f35b6100b760048036038101906100b2919061079b565b610271565b005b6100d360048036038101906100ce9190610849565b610462565b6040516100e3949392919061094f565b60405180910390f35b6000816040516020016100ff91906109de565b60405160208183030381529060405280519060200120905060008073ffffffffffffffffffffffffffffffffffffffff1660008084815260200190815260200160002060020160009054906101000a900473ffffffffffffffffffffffffffffffffffffffff1673ffffffffffffffffffffffffffffffffffffffff16141590503373ffffffffffffffffffffffffffffffffffffffff167fd7cc2a95ab3ae400e7530ac28a622da4989ddb38f404cac572ad8aafb9a18c928383426040516101ca93929190610a04565b60405180910390a2505050565b600080826040516020016101eb91906109de565b604051602081830303815290604052805190602001209050600073ffffffffffffffffffffffffffffffffffffffff1660008083815260200190815260200160002060020160009054906101000a900473ffffffffffffffffffffffffffffffffffffffff1673ffffffffffffffffffffffffffffffffffffffff161415915050919050565b60008260405160200161028491906109de565b604051602081830303815290604052805190602001209050600073ffffffffffffffffffffffffffffffffffffffff1660008083815260200190815260200160002060020160009054906101000a900473ffffffffffffffffffffffffffffffffffffffff1673ffffffffffffffffffffffffffffffffffffffff1614610340576040517f08c379a000000000000000000000000000000000000000000000000000000000815260040161033790610a87565b60405180910390fd5b60405180608001604052808481526020018381526020013373ffffffffffffffffffffffffffffffffffffffff16815260200142815250600080838152602001908152602001600020600082015181600001908161039e9190610cb3565b5060208201518160010190816103b49190610cb3565b5060408201518160020160006101000a81548173ffffffffffffffffffffffffffffffffffffffff021916908373ffffffffffffffffffffffffffffffffffffffff160217905550606082015181600301559050503373ffffffffffffffffffffffffffffffffffffffff167fdbcac255f499aa5cc25f2f072d48b1ef59516b5e771c87ba3a943008e96fa8d5828585426040516104559493929190610d85565b60405180910390a2505050565b600060205280600052604060002060009150905080600001805461048590610ad6565b80601f01602080910402602001604051908101604052809291908181526020018280546104b190610ad6565b80156104fe5780601f106104d3576101008083540402835291602001916104fe565b820191906000526020600020905b8154815290600101906020018083116104e157829003601f168201915b50505050509080600101805461051390610ad6565b80601f016020809104026020016040519081016040528092919081815260200182805461053f90610ad6565b801561058c5780601f106105615761010080835404028352916020019161058c565b820191906000526020600020905b81548152906001019060200180831161056f57829003601f168201915b5050505050908060020160009054906101000a900473ffffffffffffffffffffffffffffffffffffffff16908060030154905084565b6000604051905090565b600080fd5b600080fd5b600080fd5b600080fd5b6000601f19601f8301169050919050565b7f4e487b7100000000000000000000000000000000000000000000000000000000600052604160045260246000fd5b610629826105e0565b810181811067ffffffffffffffff82111715610648576106476105f1565b5b80604052505050565b600061065b6105c2565b90506106678282610620565b919050565b600067ffffffffffffffff821115610687576106866105f1565b5b610690826105e0565b9050602081019050919050565b82818337600083830152505050565b60006106bf6106ba8461066c565b610651565b9050828152602081018484840111156106db576106da6105db565b5b6106e684828561069d565b509392505050565b600082601f830112610703576107026105d6565b5b81356107138482602086016106ac565b91505092915050565b600060208284031215610732576107316105cc565b5b600082013567ffffffffffffffff8111156107505761074f6105d1565b5b61075c848285016106ee565b91505092915050565b60008115159050919050565b61077a81610765565b82525050565b60006020820190506107956000830184610771565b92915050565b600080604083850312156107b2576107b16105cc565b5b600083013567ffffffffffffffff8111156107d0576107cf6105d1565b5b6107dc858286016106ee565b925050602083013567ffffffffffffffff8111156107fd576107fc6105d1565b5b610809858286016106ee565b9150509250929050565b6000819050919050565b61082681610813565b811461083157600080fd5b50565b6000813590506108438161081d565b92915050565b60006020828403121561085f5761085e6105cc565b5b600061086d84828501610834565b91505092915050565b600081519050919050565b600082825260208201905092915050565b60005b838110156108b0578082015181840152602081019050610895565b60008484015250505050565b60006108c782610876565b6108d18185610881565b93506108e1818560208601610892565b6108ea816105e0565b840191505092915050565b600073ffffffffffffffffffffffffffffffffffffffff82169050919050565b6000610920826108f5565b9050919050565b61093081610915565b82525050565b6000819050919050565b61094981610936565b82525050565b6000608082019050818103600083015261096981876108bc565b9050818103602083015261097d81866108bc565b905061098c6040830185610927565b6109996060830184610940565b95945050505050565b600081905092915050565b60006109b882610876565b6109c281856109a2565b93506109d2818560208601610892565b80840191505092915050565b60006109ea82846109ad565b915081905092915050565b6109fe81610813565b82525050565b6000606082019050610a1960008301866109f5565b610a266020830185610771565b610a336040830184610940565b949350505050565b7f4d6564696120616c726561647920657869737473000000000000000000000000600082015250565b6000610a71601483610881565b9150610a7c82610a3b565b602082019050919050565b60006020820190508181036000830152610aa081610a64565b9050919050565b7f4e487b7100000000000000000000000000000000000000000000000000000000600052602260045260246000fd5b60006002820490506001821680610aee57607f821691505b602082108103610b0157610b00610aa7565b5b50919050565b60008190508160005260206000209050919050565b60006020601f8301049050919050565b600082821b905092915050565b600060088302610b697fffffffffffffffffffffffffffffffffffffffffffffffffffffffffffffffff82610b2c565b610b738683610b2c565b95508019841693508086168417925050509392505050565b6000819050919050565b6000610bb0610bab610ba684610936565b610b8b565b610936565b9050919050565b6000819050919050565b610bca83610b95565b610bde610bd682610bb7565b848454610b39565b825550505050565b600090565b610bf3610be6565b610bfe818484610bc1565b505050565b5b81811015610c2257610c17600082610beb565b600181019050610c04565b5050565b601f821115610c6757610c3881610b07565b610c4184610b1c565b81016020851015610c50578190505b610c64610c5c85610b1c565b830182610c03565b50505b505050565b600082821c905092915050565b6000610c8a60001984600802610c6c565b1980831691505092915050565b6000610ca38383610c79565b9150826002028217905092915050565b610cbc82610876565b67ffffffffffffffff811115610cd557610cd46105f1565b5b610cdf8254610ad6565b610cea828285610c26565b600060209050601f831160018114610d1d5760008415610d0b578287015190505b610d158582610c97565b865550610d7d565b601f198416610d2b86610b07565b60005b82811015610d5357848901518255600182019150602085019450602081019050610d2e565b86831015610d705784890151610d6c601f891682610c79565b8355505b6001600288020188555050505b505050505050565b6000608082019050610d9a60008301876109f5565b8181036020830152610dac81866108bc565b90508181036040830152610dc081856108bc565b9050610dcf6060830184610940565b9594505050505056fea264697066735822122048b7d19ec14acd49640ea4aad51cce71109e19e76dc1ff5341ab35f755ba854d64736f6c63430008150033",
  "immutableReferences": {},
  "source": "// SPDX-License-Identifier: MIT\r\npragma solidity ^0.8.0;\r\n\r\ncontract MediaAuthentication {\r\n    struct Media {\r\n        string cid; // Content Identifier (IPFS hash or centralized server identifier)\r\n        string metadata; // Additional metadata (e.g., title, description)\r\n        address uploader; // Address of the uploader\r\n        uint256 timestamp; // Timestamp of upload\r\n    }\r\n\r\n    mapping(bytes32 => Media) public mediaRecords; // Mapping of hash to Media details\r\n\r\n    event MediaUploaded(\r\n        bytes32 hash,\r\n        string cid,\r\n        string metadata,\r\n        address indexed uploader,\r\n        uint256 timestamp\r\n    );\r\n\r\n    event MediaVerified(\r\n        bytes32 hash,\r\n        bool isAuthentic,\r\n        address indexed verifier,\r\n        uint256 timestamp\r\n    );\r\n\r\n    /**\r\n     * @dev Uploads a new video and stores its hash and metadata on the blockchain.\r\n     * @param _cid The CID of the video (IPFS hash or centralized server ID).\r\n     * @param _metadata Metadata associated with the video (e.g., title, description).\r\n     */\r\n    function uploadMedia(string memory _cid, string memory _metadata) external {\r\n        // Generate hash of the CID to store on-chain\r\n        bytes32 mediaHash = keccak256(abi.encodePacked(_cid));\r\n\r\n        // Ensure the media is not already uploaded\r\n        require(mediaRecords[mediaHash].uploader == address(0), \"Media already exists\");\r\n\r\n        // Store media details on-chain\r\n        mediaRecords[mediaHash] = Media({\r\n            cid: _cid,\r\n            metadata: _metadata,\r\n            uploader: msg.sender,\r\n            timestamp: block.timestamp\r\n        });\r\n\r\n        emit MediaUploaded(mediaHash, _cid, _metadata, msg.sender, block.timestamp);\r\n    }\r\n\r\n    /**\r\n     * @dev Verifies the authenticity of a video by comparing its hash with stored records.\r\n     * @param _cid The CID of the video to be verified.\r\n     * @return isAuthentic True if the video is authentic, false otherwise.\r\n     */\r\n    function verifyMedia(string memory _cid) external view returns (bool isAuthentic) {\r\n        // Generate hash of the CID\r\n        bytes32 mediaHash = keccak256(abi.encodePacked(_cid));\r\n\r\n        // Check if the hash exists in the mapping\r\n        return mediaRecords[mediaHash].uploader != address(0);\r\n    }\r\n\r\n    /**\r\n     * @dev Authenticate a video and emit an event for the verification attempt.\r\n     * @param _cid The CID of the video to be verified.\r\n     */\r\n    function authenticateMedia(string memory _cid) external {\r\n        bytes32 mediaHash = keccak256(abi.encodePacked(_cid));\r\n        bool isAuthentic = mediaRecords[mediaHash].uploader != address(0);\r\n\r\n        emit MediaVerified(mediaHash, isAuthentic, msg.sender, block.timestamp);\r\n    }\r\n}\r\n",
  "sourcePath": "C:\\Users\\Sarthak\\Desktop\\BlockchainProjects\\Blockchain Media Authentication System\\contracts\\MediaAuthentication.sol",
  "compiler": {
    "name": "solc",
    "version": "0.8.21+commit.d9974bed.Emscripten.clang"
  },
  "schemaVersion": "3.4.16",
  "updatedAt": "2025-01-24T10:03:30.470Z",
  "networkType": "ethereum",
  "devdoc": {
    "kind": "dev",
    "methods": {
      "authenticateMedia(string)": {
        "details": "Authenticate a video and emit an event for the verification attempt.",
        "params": {
          "_cid": "The CID of the video to be verified."
        }
      },
      "uploadMedia(string,string)": {
        "details": "Uploads a new video and stores its hash and metadata on the blockchain.",
        "params": {
          "_cid": "The CID of the video (IPFS hash or centralized server ID).",
          "_metadata": "Metadata associated with the video (e.g., title, description)."
        }
      },
      "verifyMedia(string)": {
        "details": "Verifies the authenticity of a video by comparing its hash with stored records.",
        "params": {
          "_cid": "The CID of the video to be verified."
        },
        "returns": {
          "isAuthentic": "True if the video is authentic, false otherwise."
        }
      }
    },
    "version": 1
  },
  "userdoc": {
    "kind": "user",
    "methods": {},
    "version": 1
  }
}